{
  "_format": "hh-sol-artifact-1",
  "contractName": "HeroCoin",
  "sourceName": "contracts/HeroCoin.sol",
  "abi": [
    {
      "inputs": [
        {
          "internalType": "address",
          "name": "initialOwner",
          "type": "address"
        }
      ],
      "stateMutability": "nonpayable",
      "type": "constructor"
    },
    {
      "inputs": [
        {
          "internalType": "address",
          "name": "spender",
          "type": "address"
        },
        {
          "internalType": "uint256",
          "name": "allowance",
          "type": "uint256"
        },
        {
          "internalType": "uint256",
          "name": "needed",
          "type": "uint256"
        }
      ],
      "name": "ERC20InsufficientAllowance",
      "type": "error"
    },
    {
      "inputs": [
        {
          "internalType": "address",
          "name": "sender",
          "type": "address"
        },
        {
          "internalType": "uint256",
          "name": "balance",
          "type": "uint256"
        },
        {
          "internalType": "uint256",
          "name": "needed",
          "type": "uint256"
        }
      ],
      "name": "ERC20InsufficientBalance",
      "type": "error"
    },
    {
      "inputs": [
        {
          "internalType": "address",
          "name": "approver",
          "type": "address"
        }
      ],
      "name": "ERC20InvalidApprover",
      "type": "error"
    },
    {
      "inputs": [
        {
          "internalType": "address",
          "name": "receiver",
          "type": "address"
        }
      ],
      "name": "ERC20InvalidReceiver",
      "type": "error"
    },
    {
      "inputs": [
        {
          "internalType": "address",
          "name": "sender",
          "type": "address"
        }
      ],
      "name": "ERC20InvalidSender",
      "type": "error"
    },
    {
      "inputs": [
        {
          "internalType": "address",
          "name": "spender",
          "type": "address"
        }
      ],
      "name": "ERC20InvalidSpender",
      "type": "error"
    },
    {
      "inputs": [
        {
          "internalType": "address",
          "name": "owner",
          "type": "address"
        }
      ],
      "name": "OwnableInvalidOwner",
      "type": "error"
    },
    {
      "inputs": [
        {
          "internalType": "address",
          "name": "account",
          "type": "address"
        }
      ],
      "name": "OwnableUnauthorizedAccount",
      "type": "error"
    },
    {
      "anonymous": false,
      "inputs": [
        {
          "indexed": true,
          "internalType": "address",
          "name": "owner",
          "type": "address"
        },
        {
          "indexed": true,
          "internalType": "address",
          "name": "spender",
          "type": "address"
        },
        {
          "indexed": false,
          "internalType": "uint256",
          "name": "value",
          "type": "uint256"
        }
      ],
      "name": "Approval",
      "type": "event"
    },
    {
      "anonymous": false,
      "inputs": [
        {
          "indexed": true,
          "internalType": "address",
          "name": "user",
          "type": "address"
        },
        {
          "indexed": false,
          "internalType": "uint256",
          "name": "amount",
          "type": "uint256"
        }
      ],
      "name": "CoinsMined",
      "type": "event"
    },
    {
      "anonymous": false,
      "inputs": [
        {
          "indexed": true,
          "internalType": "address",
          "name": "user",
          "type": "address"
        },
        {
          "indexed": false,
          "internalType": "uint256",
          "name": "amount",
          "type": "uint256"
        }
      ],
      "name": "CoinsStaked",
      "type": "event"
    },
    {
      "anonymous": false,
      "inputs": [
        {
          "indexed": true,
          "internalType": "address",
          "name": "user",
          "type": "address"
        },
        {
          "indexed": false,
          "internalType": "uint256",
          "name": "amount",
          "type": "uint256"
        }
      ],
      "name": "CoinsUnstaked",
      "type": "event"
    },
    {
      "anonymous": false,
      "inputs": [
        {
          "indexed": true,
          "internalType": "address",
          "name": "previousOwner",
          "type": "address"
        },
        {
          "indexed": true,
          "internalType": "address",
          "name": "newOwner",
          "type": "address"
        }
      ],
      "name": "OwnershipTransferred",
      "type": "event"
    },
    {
      "anonymous": false,
      "inputs": [
        {
          "indexed": true,
          "internalType": "address",
          "name": "from",
          "type": "address"
        },
        {
          "indexed": true,
          "internalType": "address",
          "name": "to",
          "type": "address"
        },
        {
          "indexed": false,
          "internalType": "uint256",
          "name": "value",
          "type": "uint256"
        }
      ],
      "name": "Transfer",
      "type": "event"
    },
    {
      "inputs": [],
      "name": "INITIAL_SUPPLY",
      "outputs": [
        {
          "internalType": "uint256",
          "name": "",
          "type": "uint256"
        }
      ],
      "stateMutability": "view",
      "type": "function"
    },
    {
      "inputs": [
        {
          "internalType": "address",
          "name": "owner",
          "type": "address"
        },
        {
          "internalType": "address",
          "name": "spender",
          "type": "address"
        }
      ],
      "name": "allowance",
      "outputs": [
        {
          "internalType": "uint256",
          "name": "",
          "type": "uint256"
        }
      ],
      "stateMutability": "view",
      "type": "function"
    },
    {
      "inputs": [
        {
          "internalType": "address",
          "name": "spender",
          "type": "address"
        },
        {
          "internalType": "uint256",
          "name": "value",
          "type": "uint256"
        }
      ],
      "name": "approve",
      "outputs": [
        {
          "internalType": "bool",
          "name": "",
          "type": "bool"
        }
      ],
      "stateMutability": "nonpayable",
      "type": "function"
    },
    {
      "inputs": [
        {
          "internalType": "address",
          "name": "account",
          "type": "address"
        }
      ],
      "name": "balanceOf",
      "outputs": [
        {
          "internalType": "uint256",
          "name": "",
          "type": "uint256"
        }
      ],
      "stateMutability": "view",
      "type": "function"
    },
    {
      "inputs": [],
      "name": "decimals",
      "outputs": [
        {
          "internalType": "uint8",
          "name": "",
          "type": "uint8"
        }
      ],
      "stateMutability": "view",
      "type": "function"
    },
    {
      "inputs": [
        {
          "internalType": "address",
          "name": "user",
          "type": "address"
        },
        {
          "internalType": "uint256",
          "name": "amount",
          "type": "uint256"
        }
      ],
      "name": "mineCoins",
      "outputs": [],
      "stateMutability": "nonpayable",
      "type": "function"
    },
    {
      "inputs": [
        {
          "internalType": "address",
          "name": "",
          "type": "address"
        }
      ],
      "name": "miningRewards",
      "outputs": [
        {
          "internalType": "uint256",
          "name": "",
          "type": "uint256"
        }
      ],
      "stateMutability": "view",
      "type": "function"
    },
    {
      "inputs": [],
      "name": "name",
      "outputs": [
        {
          "internalType": "string",
          "name": "",
          "type": "string"
        }
      ],
      "stateMutability": "view",
      "type": "function"
    },
    {
      "inputs": [],
      "name": "owner",
      "outputs": [
        {
          "internalType": "address",
          "name": "",
          "type": "address"
        }
      ],
      "stateMutability": "view",
      "type": "function"
    },
    {
      "inputs": [],
      "name": "renounceOwnership",
      "outputs": [],
      "stateMutability": "nonpayable",
      "type": "function"
    },
    {
      "inputs": [
        {
          "internalType": "uint256",
          "name": "amount",
          "type": "uint256"
        }
      ],
      "name": "stakeCoins",
      "outputs": [],
      "stateMutability": "nonpayable",
      "type": "function"
    },
    {
      "inputs": [
        {
          "internalType": "address",
          "name": "",
          "type": "address"
        }
      ],
      "name": "stakedBalance",
      "outputs": [
        {
          "internalType": "uint256",
          "name": "",
          "type": "uint256"
        }
      ],
      "stateMutability": "view",
      "type": "function"
    },
    {
      "inputs": [],
      "name": "symbol",
      "outputs": [
        {
          "internalType": "string",
          "name": "",
          "type": "string"
        }
      ],
      "stateMutability": "view",
      "type": "function"
    },
    {
      "inputs": [],
      "name": "totalSupply",
      "outputs": [
        {
          "internalType": "uint256",
          "name": "",
          "type": "uint256"
        }
      ],
      "stateMutability": "view",
      "type": "function"
    },
    {
      "inputs": [
        {
          "internalType": "address",
          "name": "to",
          "type": "address"
        },
        {
          "internalType": "uint256",
          "name": "value",
          "type": "uint256"
        }
      ],
      "name": "transfer",
      "outputs": [
        {
          "internalType": "bool",
          "name": "",
          "type": "bool"
        }
      ],
      "stateMutability": "nonpayable",
      "type": "function"
    },
    {
      "inputs": [
        {
          "internalType": "address",
          "name": "from",
          "type": "address"
        },
        {
          "internalType": "address",
          "name": "to",
          "type": "address"
        },
        {
          "internalType": "uint256",
          "name": "value",
          "type": "uint256"
        }
      ],
      "name": "transferFrom",
      "outputs": [
        {
          "internalType": "bool",
          "name": "",
          "type": "bool"
        }
      ],
      "stateMutability": "nonpayable",
      "type": "function"
    },
    {
      "inputs": [
        {
          "internalType": "address",
          "name": "newOwner",
          "type": "address"
        }
      ],
      "name": "transferOwnership",
      "outputs": [],
      "stateMutability": "nonpayable",
      "type": "function"
    },
    {
      "inputs": [
        {
          "internalType": "uint256",
          "name": "amount",
          "type": "uint256"
        }
      ],
      "name": "unstakeCoins",
      "outputs": [],
      "stateMutability": "nonpayable",
      "type": "function"
    }
  ],
  "bytecode": "0x60806040523480156200001157600080fd5b506040516200227138038062002271833981810160405281019062000037919062000562565b806040518060400160405280600881526020017f4865726f436f696e0000000000000000000000000000000000000000000000008152506040518060400160405280600481526020017f4845524f000000000000000000000000000000000000000000000000000000008152508160039081620000b591906200080e565b508060049081620000c791906200080e565b505050600073ffffffffffffffffffffffffffffffffffffffff168173ffffffffffffffffffffffffffffffffffffffff16036200013f5760006040517f1e4fbdf700000000000000000000000000000000000000000000000000000000815260040162000136919062000906565b60405180910390fd5b62000150816200017560201b60201c565b506200016e816a52b7d2dcc80cd2e40000006200023b60201b60201c565b50620009f8565b6000600560009054906101000a900473ffffffffffffffffffffffffffffffffffffffff16905081600560006101000a81548173ffffffffffffffffffffffffffffffffffffffff021916908373ffffffffffffffffffffffffffffffffffffffff1602179055508173ffffffffffffffffffffffffffffffffffffffff168173ffffffffffffffffffffffffffffffffffffffff167f8be0079c531659141344cd1fd0a4f28419497f9722a3daafe3b4186f6b6457e060405160405180910390a35050565b600073ffffffffffffffffffffffffffffffffffffffff168273ffffffffffffffffffffffffffffffffffffffff1603620002b05760006040517fec442f05000000000000000000000000000000000000000000000000000000008152600401620002a7919062000906565b60405180910390fd5b620002c460008383620002c860201b60201c565b5050565b600073ffffffffffffffffffffffffffffffffffffffff168373ffffffffffffffffffffffffffffffffffffffff16036200031e57806002600082825462000311919062000952565b92505081905550620003f4565b60008060008573ffffffffffffffffffffffffffffffffffffffff1673ffffffffffffffffffffffffffffffffffffffff16815260200190815260200160002054905081811015620003ad578381836040517fe450d38c000000000000000000000000000000000000000000000000000000008152600401620003a4939291906200099e565b60405180910390fd5b8181036000808673ffffffffffffffffffffffffffffffffffffffff1673ffffffffffffffffffffffffffffffffffffffff16815260200190815260200160002081905550505b600073ffffffffffffffffffffffffffffffffffffffff168273ffffffffffffffffffffffffffffffffffffffff16036200043f57806002600082825403925050819055506200048c565b806000808473ffffffffffffffffffffffffffffffffffffffff1673ffffffffffffffffffffffffffffffffffffffff168152602001908152602001600020600082825401925050819055505b8173ffffffffffffffffffffffffffffffffffffffff168373ffffffffffffffffffffffffffffffffffffffff167fddf252ad1be2c89b69c2b068fc378daa952ba7f163c4a11628f55a4df523b3ef83604051620004eb9190620009db565b60405180910390a3505050565b600080fd5b600073ffffffffffffffffffffffffffffffffffffffff82169050919050565b60006200052a82620004fd565b9050919050565b6200053c816200051d565b81146200054857600080fd5b50565b6000815190506200055c8162000531565b92915050565b6000602082840312156200057b576200057a620004f8565b5b60006200058b848285016200054b565b91505092915050565b600081519050919050565b7f4e487b7100000000000000000000000000000000000000000000000000000000600052604160045260246000fd5b7f4e487b7100000000000000000000000000000000000000000000000000000000600052602260045260246000fd5b600060028204905060018216806200061657607f821691505b6020821081036200062c576200062b620005ce565b5b50919050565b60008190508160005260206000209050919050565b60006020601f8301049050919050565b600082821b905092915050565b600060088302620006967fffffffffffffffffffffffffffffffffffffffffffffffffffffffffffffffff8262000657565b620006a2868362000657565b95508019841693508086168417925050509392505050565b6000819050919050565b6000819050919050565b6000620006ef620006e9620006e384620006ba565b620006c4565b620006ba565b9050919050565b6000819050919050565b6200070b83620006ce565b620007236200071a82620006f6565b84845462000664565b825550505050565b600090565b6200073a6200072b565b6200074781848462000700565b505050565b5b818110156200076f576200076360008262000730565b6001810190506200074d565b5050565b601f821115620007be57620007888162000632565b620007938462000647565b81016020851015620007a3578190505b620007bb620007b28562000647565b8301826200074c565b50505b505050565b600082821c905092915050565b6000620007e360001984600802620007c3565b1980831691505092915050565b6000620007fe8383620007d0565b9150826002028217905092915050565b620008198262000594565b67ffffffffffffffff8111156200083557620008346200059f565b5b620008418254620005fd565b6200084e82828562000773565b600060209050601f83116001811462000886576000841562000871578287015190505b6200087d8582620007f0565b865550620008ed565b601f198416620008968662000632565b60005b82811015620008c05784890151825560018201915060208501945060208101905062000899565b86831015620008e05784890151620008dc601f891682620007d0565b8355505b6001600288020188555050505b505050505050565b62000900816200051d565b82525050565b60006020820190506200091d6000830184620008f5565b92915050565b7f4e487b7100000000000000000000000000000000000000000000000000000000600052601160045260246000fd5b60006200095f82620006ba565b91506200096c83620006ba565b925082820190508082111562000987576200098662000923565b5b92915050565b6200099881620006ba565b82525050565b6000606082019050620009b56000830186620008f5565b620009c460208301856200098d565b620009d360408301846200098d565b949350505050565b6000602082019050620009f260008301846200098d565b92915050565b6118698062000a086000396000f3fe608060405234801561001057600080fd5b50600436106101165760003560e01c8063715018a6116100a25780639d937fcc116100715780639d937fcc146102d1578063a73296b2146102ed578063a9059cbb1461031d578063dd62ed3e1461034d578063f2fde38b1461037d57610116565b8063715018a61461026f5780638da5cb5b14610279578063932f23ef1461029757806395d89b41146102b357610116565b80632ff2e9dc116100e95780632ff2e9dc146101b7578063313ce567146101d55780633215a59e146101f3578063602172671461020f57806370a082311461023f57610116565b806306fdde031461011b578063095ea7b31461013957806318160ddd1461016957806323b872dd14610187575b600080fd5b610123610399565b6040516101309190611286565b60405180910390f35b610153600480360381019061014e9190611341565b61042b565b604051610160919061139c565b60405180910390f35b61017161044e565b60405161017e91906113c6565b60405180910390f35b6101a1600480360381019061019c91906113e1565b610458565b6040516101ae919061139c565b60405180910390f35b6101bf610487565b6040516101cc91906113c6565b60405180910390f35b6101dd610496565b6040516101ea9190611450565b60405180910390f35b61020d60048036038101906102089190611341565b61049f565b005b6102296004803603810190610224919061146b565b61059c565b60405161023691906113c6565b60405180910390f35b6102596004803603810190610254919061146b565b6105b4565b60405161026691906113c6565b60405180910390f35b6102776105fc565b005b610281610610565b60405161028e91906114a7565b60405180910390f35b6102b160048036038101906102ac91906114c2565b61063a565b005b6102bb61076e565b6040516102c89190611286565b60405180910390f35b6102eb60048036038101906102e691906114c2565b610800565b005b6103076004803603810190610302919061146b565b610940565b60405161031491906113c6565b60405180910390f35b61033760048036038101906103329190611341565b610958565b604051610344919061139c565b60405180910390f35b610367600480360381019061036291906114ef565b61097b565b60405161037491906113c6565b60405180910390f35b6103976004803603810190610392919061146b565b610a02565b005b6060600380546103a89061155e565b80601f01602080910402602001604051908101604052809291908181526020018280546103d49061155e565b80156104215780601f106103f657610100808354040283529160200191610421565b820191906000526020600020905b81548152906001019060200180831161040457829003601f168201915b5050505050905090565b600080610436610a88565b9050610443818585610a90565b600191505092915050565b6000600254905090565b600080610463610a88565b9050610470858285610aa2565b61047b858585610b37565b60019150509392505050565b6a52b7d2dcc80cd2e400000081565b60006012905090565b6104a7610c2b565b600081116104ea576040517f08c379a00000000000000000000000000000000000000000000000000000000081526004016104e190611601565b60405180910390fd5b6104f48282610cb2565b80600760008473ffffffffffffffffffffffffffffffffffffffff1673ffffffffffffffffffffffffffffffffffffffff16815260200190815260200160002060008282546105439190611650565b925050819055508173ffffffffffffffffffffffffffffffffffffffff167f72c7a8dfef2ecab22b2a80d7979be5e727d1de6a99ac6153e04bd6bea69f5f7d8260405161059091906113c6565b60405180910390a25050565b60066020528060005260406000206000915090505481565b60008060008373ffffffffffffffffffffffffffffffffffffffff1673ffffffffffffffffffffffffffffffffffffffff168152602001908152602001600020549050919050565b610604610c2b565b61060e6000610d34565b565b6000600560009054906101000a900473ffffffffffffffffffffffffffffffffffffffff16905090565b80600660003373ffffffffffffffffffffffffffffffffffffffff1673ffffffffffffffffffffffffffffffffffffffff1681526020019081526020016000205410156106bc576040517f08c379a00000000000000000000000000000000000000000000000000000000081526004016106b3906116d0565b60405180910390fd5b80600660003373ffffffffffffffffffffffffffffffffffffffff1673ffffffffffffffffffffffffffffffffffffffff168152602001908152602001600020600082825461070b91906116f0565b9250508190555061071d303383610b37565b3373ffffffffffffffffffffffffffffffffffffffff167ff9d41358d27f8605ca67326d24ba07a140f03a0b345cb413a5094ebd59e9926b8260405161076391906113c6565b60405180910390a250565b60606004805461077d9061155e565b80601f01602080910402602001604051908101604052809291908181526020018280546107a99061155e565b80156107f65780601f106107cb576101008083540402835291602001916107f6565b820191906000526020600020905b8154815290600101906020018083116107d957829003601f168201915b5050505050905090565b60008111610843576040517f08c379a000000000000000000000000000000000000000000000000000000000815260040161083a90611770565b60405180910390fd5b8061084d336105b4565b101561088e576040517f08c379a0000000000000000000000000000000000000000000000000000000008152600401610885906117dc565b60405180910390fd5b610899333083610b37565b80600660003373ffffffffffffffffffffffffffffffffffffffff1673ffffffffffffffffffffffffffffffffffffffff16815260200190815260200160002060008282546108e89190611650565b925050819055503373ffffffffffffffffffffffffffffffffffffffff167f329266e4673cc1d6a776b9ea632dcb971672b2013b1f3e870957beb9f1f66dc18260405161093591906113c6565b60405180910390a250565b60076020528060005260406000206000915090505481565b600080610963610a88565b9050610970818585610b37565b600191505092915050565b6000600160008473ffffffffffffffffffffffffffffffffffffffff1673ffffffffffffffffffffffffffffffffffffffff16815260200190815260200160002060008373ffffffffffffffffffffffffffffffffffffffff1673ffffffffffffffffffffffffffffffffffffffff16815260200190815260200160002054905092915050565b610a0a610c2b565b600073ffffffffffffffffffffffffffffffffffffffff168173ffffffffffffffffffffffffffffffffffffffff1603610a7c5760006040517f1e4fbdf7000000000000000000000000000000000000000000000000000000008152600401610a7391906114a7565b60405180910390fd5b610a8581610d34565b50565b600033905090565b610a9d8383836001610dfa565b505050565b6000610aae848461097b565b90507fffffffffffffffffffffffffffffffffffffffffffffffffffffffffffffffff811015610b315781811015610b21578281836040517ffb8f41b2000000000000000000000000000000000000000000000000000000008152600401610b18939291906117fc565b60405180910390fd5b610b3084848484036000610dfa565b5b50505050565b600073ffffffffffffffffffffffffffffffffffffffff168373ffffffffffffffffffffffffffffffffffffffff1603610ba95760006040517f96c6fd1e000000000000000000000000000000000000000000000000000000008152600401610ba091906114a7565b60405180910390fd5b600073ffffffffffffffffffffffffffffffffffffffff168273ffffffffffffffffffffffffffffffffffffffff1603610c1b5760006040517fec442f05000000000000000000000000000000000000000000000000000000008152600401610c1291906114a7565b60405180910390fd5b610c26838383610fd1565b505050565b610c33610a88565b73ffffffffffffffffffffffffffffffffffffffff16610c51610610565b73ffffffffffffffffffffffffffffffffffffffff1614610cb057610c74610a88565b6040517f118cdaa7000000000000000000000000000000000000000000000000000000008152600401610ca791906114a7565b60405180910390fd5b565b600073ffffffffffffffffffffffffffffffffffffffff168273ffffffffffffffffffffffffffffffffffffffff1603610d245760006040517fec442f05000000000000000000000000000000000000000000000000000000008152600401610d1b91906114a7565b60405180910390fd5b610d3060008383610fd1565b5050565b6000600560009054906101000a900473ffffffffffffffffffffffffffffffffffffffff16905081600560006101000a81548173ffffffffffffffffffffffffffffffffffffffff021916908373ffffffffffffffffffffffffffffffffffffffff1602179055508173ffffffffffffffffffffffffffffffffffffffff168173ffffffffffffffffffffffffffffffffffffffff167f8be0079c531659141344cd1fd0a4f28419497f9722a3daafe3b4186f6b6457e060405160405180910390a35050565b600073ffffffffffffffffffffffffffffffffffffffff168473ffffffffffffffffffffffffffffffffffffffff1603610e6c5760006040517fe602df05000000000000000000000000000000000000000000000000000000008152600401610e6391906114a7565b60405180910390fd5b600073ffffffffffffffffffffffffffffffffffffffff168373ffffffffffffffffffffffffffffffffffffffff1603610ede5760006040517f94280d62000000000000000000000000000000000000000000000000000000008152600401610ed591906114a7565b60405180910390fd5b81600160008673ffffffffffffffffffffffffffffffffffffffff1673ffffffffffffffffffffffffffffffffffffffff16815260200190815260200160002060008573ffffffffffffffffffffffffffffffffffffffff1673ffffffffffffffffffffffffffffffffffffffff168152602001908152602001600020819055508015610fcb578273ffffffffffffffffffffffffffffffffffffffff168473ffffffffffffffffffffffffffffffffffffffff167f8c5be1e5ebec7d5bd14f71427d1e84f3dd0314c0f7b2291e5b200ac8c7c3b92584604051610fc291906113c6565b60405180910390a35b50505050565b600073ffffffffffffffffffffffffffffffffffffffff168373ffffffffffffffffffffffffffffffffffffffff16036110235780600260008282546110179190611650565b925050819055506110f6565b60008060008573ffffffffffffffffffffffffffffffffffffffff1673ffffffffffffffffffffffffffffffffffffffff168152602001908152602001600020549050818110156110af578381836040517fe450d38c0000000000000000000000000000000000000000000000000000000081526004016110a6939291906117fc565b60405180910390fd5b8181036000808673ffffffffffffffffffffffffffffffffffffffff1673ffffffffffffffffffffffffffffffffffffffff16815260200190815260200160002081905550505b600073ffffffffffffffffffffffffffffffffffffffff168273ffffffffffffffffffffffffffffffffffffffff160361113f578060026000828254039250508190555061118c565b806000808473ffffffffffffffffffffffffffffffffffffffff1673ffffffffffffffffffffffffffffffffffffffff168152602001908152602001600020600082825401925050819055505b8173ffffffffffffffffffffffffffffffffffffffff168373ffffffffffffffffffffffffffffffffffffffff167fddf252ad1be2c89b69c2b068fc378daa952ba7f163c4a11628f55a4df523b3ef836040516111e991906113c6565b60405180910390a3505050565b600081519050919050565b600082825260208201905092915050565b60005b83811015611230578082015181840152602081019050611215565b60008484015250505050565b6000601f19601f8301169050919050565b6000611258826111f6565b6112628185611201565b9350611272818560208601611212565b61127b8161123c565b840191505092915050565b600060208201905081810360008301526112a0818461124d565b905092915050565b600080fd5b600073ffffffffffffffffffffffffffffffffffffffff82169050919050565b60006112d8826112ad565b9050919050565b6112e8816112cd565b81146112f357600080fd5b50565b600081359050611305816112df565b92915050565b6000819050919050565b61131e8161130b565b811461132957600080fd5b50565b60008135905061133b81611315565b92915050565b60008060408385031215611358576113576112a8565b5b6000611366858286016112f6565b92505060206113778582860161132c565b9150509250929050565b60008115159050919050565b61139681611381565b82525050565b60006020820190506113b1600083018461138d565b92915050565b6113c08161130b565b82525050565b60006020820190506113db60008301846113b7565b92915050565b6000806000606084860312156113fa576113f96112a8565b5b6000611408868287016112f6565b9350506020611419868287016112f6565b925050604061142a8682870161132c565b9150509250925092565b600060ff82169050919050565b61144a81611434565b82525050565b60006020820190506114656000830184611441565b92915050565b600060208284031215611481576114806112a8565b5b600061148f848285016112f6565b91505092915050565b6114a1816112cd565b82525050565b60006020820190506114bc6000830184611498565b92915050565b6000602082840312156114d8576114d76112a8565b5b60006114e68482850161132c565b91505092915050565b60008060408385031215611506576115056112a8565b5b6000611514858286016112f6565b9250506020611525858286016112f6565b9150509250929050565b7f4e487b7100000000000000000000000000000000000000000000000000000000600052602260045260246000fd5b6000600282049050600182168061157657607f821691505b6020821081036115895761158861152f565b5b50919050565b7f4d696e696e6720616d6f756e74206d757374206265206772656174657220746860008201527f616e207a65726f00000000000000000000000000000000000000000000000000602082015250565b60006115eb602783611201565b91506115f68261158f565b604082019050919050565b6000602082019050818103600083015261161a816115de565b9050919050565b7f4e487b7100000000000000000000000000000000000000000000000000000000600052601160045260246000fd5b600061165b8261130b565b91506116668361130b565b925082820190508082111561167e5761167d611621565b5b92915050565b7f496e73756666696369656e74207374616b65642062616c616e63650000000000600082015250565b60006116ba601b83611201565b91506116c582611684565b602082019050919050565b600060208201905081810360008301526116e9816116ad565b9050919050565b60006116fb8261130b565b91506117068361130b565b925082820390508181111561171e5761171d611621565b5b92915050565b7f416d6f756e74206d7573742062652067726561746572207468616e207a65726f600082015250565b600061175a602083611201565b915061176582611724565b602082019050919050565b600060208201905081810360008301526117898161174d565b9050919050565b7f496e73756666696369656e742062616c616e6365000000000000000000000000600082015250565b60006117c6601483611201565b91506117d182611790565b602082019050919050565b600060208201905081810360008301526117f5816117b9565b9050919050565b60006060820190506118116000830186611498565b61181e60208301856113b7565b61182b60408301846113b7565b94935050505056fea2646970667358221220220a88fbd89fc780afb83b2791632d97fc0bfd1e02b1b69cd13f9762d6d7d3f564736f6c63430008140033",
  "linkReferences": {},
  "deployedLinkReferences": {}
}